:100000000C94B5000C94D2000C94D2000C94D20045
:100010000C94D2000C943B010C94D2000C94D200AE
:100020000C94D2000C94D2000C94D2000C94D20008
:100030000C94D2000C94D2000C94D2000C94D200F8
:100040000C94D2000C94D2000C94D2000C94D200E8
:100050000C94D2000C94D2000C94D2000C94D200D8
:100060000C94D2000C94D2006E616E00696E660032
:1000700000407A10F35A00A0724E18090010A5D45F
:10008000E80000E87648170000E40B54020000CABC
:100090009A3B000000E1F505000080969800000002
:1000A00040420F000000A086010000001027000061
:1000B0000000E803000000006400000000000A00E7
:1000C000000000000100000000002C76D888DC67EA
:1000D0004F0823DFC1DFAE59E1B1B796E5E3E45342
:1000E000C63AE651997696E8E6C28426EB898C9B5F
:1000F00062ED407C6FFCEFBC9C9F40F2BAA56FA5FF
:10010000F490055A2AF75C936B6CF9676DC11BFC80
:10011000E0E40D47FEF520E6B500D0ED902E03009B
:10012000943577050080841E080000204E0A0000E8
:1001300000C80C333333330F986E12831141EF8DA7
:100140002114893BE65516CFFEE6DB18D1844B38E7
:100150001BF77C1D901DA4BBE424203284725E2218
:100160008100C9F124ECA1E53D2711241FBECFEF8A
:10017000D8E0DEBFCDBF11E0A0E0B1E0EEE7F0E1F6
:1001800002C005900D92AE33B107D9F721E0AEE37E
:10019000B1E001C01D92A435B207E1F70E949701BA
:1001A0000C943D080C940000FC01A181B2812C91BB
:1001B000308181E090E001C0880F3A95EAF78095A0
:1001C00082238C93089595B19F70282F207F922BC6
:1001D00095B92A982B9A22E02A95F1F700C02B981E
:1001E0003FEF91EE24E0315090402040E1F700C015
:1001F000000025B12F7030E1839FC0011124822BB4
:1002000085B92B9A82E08A95F1F700C02B988FE987
:100210009FE00197F1F700C000000895FC01819173
:10022000811101C0089595B19F70282F207F922BD6
:1002300095B92A9A2B9A32E03A95F1F700C02B989B
:10024000AFE9BFE01197F1F700C0000025B12F70B2
:10025000B0E18B9FC0011124822B85B92B9A32E02B
:100260003A95F1F700C02B988FE99FE00197F1F7DD
:1002700000C00000D4CF1F921FB61F9211248F938D
:100280009F93809153014A9914C0811103C081E06A
:100290008093530180914E014B9928C0811103C076
:1002A00081E080934E019F918F911F901FBE1F9000
:1002B0001895813079F71092530190915201911164
:1002C000E9CF90915101911103C080935201E2CF87
:1002D000913001F780914F019091500101979093D7
:1002E000500180934F0110925101D4CF8130D9F643
:1002F00010924E0190915201911107C090915101BD
:100300009111D1CF80935101CECF913061F6809180
:1003100051018111C8CF80914F01909150010196F8
:100320009093500180934F0110925201BCCF809165
:1003300068008460809368008CE080936D007894FE
:10034000E0910D01F0910E01208140910A0181E0C0
:1003500090E0BC0102C0660F771F4A95E2F7262B9A
:100360002083E0910801F09109012081409105016D
:10037000BC0102C0660F771F4A95E2F7262B208347
:10038000E0910301F091040120813091000101C04E
:10039000880F3A95EAF7822B80838CEF84B98FE33C
:1003A0009CE90197F1F700C0000083E00E94E300A0
:1003B0008FE097E20197F1F700C0000083E00E9410
:1003C000E3008FEC97E00197F1F700C0000083E0B5
:1003D0000E94E30082E00E94E3008FE39CE9019722
:1003E000F1F700C0000082E00E94E3008FE097E296
:1003F0000197F1F700C0000088E20E94E3008FE05F
:1004000097E20197F1F700C000008CE00E94E30042
:100410008FE097E20197F1F700C0000086E00E94AC
:10042000E3008FE097E20197F1F700C0000081E060
:100430000E94E3008FE19EE40197F1F700C0000005
:100440009FE72AE146E0915020404040E1F700C09C
:10045000000080E80E94E3008FE091E00E940E011E
:1004600080EC0E94E3008FE191E00E940E015FE7C3
:100470006AE176E0515060407040E1F700C0000052
:1004800081E00E94E3008FE99FE00197F1F700C04F
:10049000000082E00E94E3000FE211E08EE3E82E0C
:1004A00081E0F82EC1E0D0E080914F0190915001A1
:1004B00097FF3CC01092500110924F0180914F0164
:1004C000909150019F938F931F930F93FF92EF9200
:1004D0000E941A0880E80E94E3008EE391E00E94E7
:1004E0000E0180914F01909150010F900F900F904D
:1004F0000F900F900F9018161906ECF4E0910B0175
:10050000F0910C01808120910A01AE0102C0440FDC
:10051000551F2A95E2F7842B808385E091E00E94A5
:10052000D40080E091E00E94D400BECF80914F01C2
:1005300090915001C3CF8AE091E00E94D400E091F5
:100540000601F0910701808120910501BE0102C0E2
:10055000660F771F2A95E2F7862B8083E0910101D1
:10056000F0910201808120910001AE0102C0440F90
:10057000551F2A95E2F7842B808396CFA1E1B0E046
:10058000E4ECF2E00C9467067C013B015A01DC01CB
:1005900017961C921E92169713968C9181FF94C306
:1005A000F7019381F30193FD859193FF81913F01C1
:1005B000882309F468C0853239F493FD859193FF4F
:1005C00081913F01853239F4B70190E00E948C0798
:1005D00065015601E5CF812C512C00E00032D0F5A9
:1005E0008B3289F158F4803279F1833289F19BE9B9
:1005F000980F933008F026C20F7E5AC08D3231F129
:10060000803349F020ED280F2A3090F18E3209F026
:1006100041C0006401C00160F30193FD859193FF27
:1006200081913F018111DACF102F197F803709F4B2
:100630000FC308F005C3883509F40CC38F3619F5CC
:1006400028E030E0E0C202600460E6CF0860E4CF5A
:100650000061E2CF07FD25C020ED280F2A3078F495
:1006600006FF06C0FAE08F9E200D1124822ED4CF03
:100670003AE0539E200D1124522E0062CDCF8E32CF
:1006800049F406FFC6CFF701868197816196E2E1C2
:100690000C9483068C3611F40068BECF883609F4BA
:1006A000BBCF9BEB980F933008F0A1CF0061805E29
:1006B000402F4074442E0F73902E4111A8C08536F0
:1006C00009F0AFC0689496F866E0862E16E0F50152
:1006D00081919191A191B1916F018C879D87AE8796
:1006E000BF87042D282DAE014F5F5F4FBC01CD01A8
:1006F0000E949E065C013980832D8C7030FE02C002
:1007000033FED1C0082F91FCCAC092FEAAC081114D
:10071000E1C000E297FEF9C04A0C34FE04C08A81B1
:10072000813309F44A9414140CF01CC1F8E0F41558
:1007300010F498E0492EC501B7FE02C080E090E0B9
:10074000019601110196112331F0212F30E02F5F26
:100750003F4F820F931F252D30E0581A82179307C1
:100760000CF0512C892D8970811102C05110FDC0EF
:10077000002329F0B701802F90E00E948C0793FCA2
:1007800002C05110F9C097FE0FC14501B7FE02C06B
:10079000812C912CC5018819990961E070E06C0FDA
:1007A0007D1F680F791F7D876C87C50184199109AA
:1007B000998B888B012F10E0119501951109A814D0
:1007C000B9040CF4E0C0A889B989A815B9050CF0E2
:1007D000DAC0EC85FD858181F1E08F1A91082C85C6
:1007E0003D852F5F3F4F3D872C87801691060CF487
:1007F000CCC0B70190E00E948C073FEF83169306B0
:10080000F1F6B7018EE290E00E948C07D8CF8536D2
:1008100079F4689496F867E06815F8F0182D412C83
:1008200056CF35E0832E8636C9F756E0852E02C0B6
:10083000863671F4689497F8882D5BE3581508F4B0
:100840008BE344244394480E182D47E0842E3FCF79
:1008500010E0882021F38A94DECF27E0822E17E073
:10086000DECF882309F456CFF3E0F51510F1512CB3
:100870000CE610E033FE02C008E610E0592D50717E
:10088000952EF8018491811137C0552009F4A1CE2D
:10089000B70180E290E00E948C075A94F6CF811154
:1008A00027C00BE237CF0DE2882309F433CF1DE2D6
:1008B00012C02DEF520E192D18701111D9CFB7019A
:1008C00080E290E00E948C075A945110F8CF1123D7
:1008D00071F208C010E234E0351560F44CEF540EAC
:1008E00093FEEDCFB701812F90E00E948C07C0CF1F
:1008F0001BE2F1CF512CF6CF91108052B70190E05E
:100900000E948C070F5F1F4FBCCF96FE03C085E08F
:1009100090E017CFE12FF0E0EA15FB053CF02CEF5B
:10092000A2162FEFB20614F0689497F8329641E0C1
:1009300050E04C0F5D1FE40FF51F01C01150112353
:1009400019F082918033D1F397FEE1CF4424439490
:10095000410E812F90E01A19A816B9060CF4EBCEBF
:1009600010E0E9CE44244394E6CEB70180E290E063
:100970000E948C075A94FACEB70180E390E00E945F
:100980008C075A94FECE80E327CFA814B90439F41B
:100990009A81963318F4953311F434FE81E3B7014C
:1009A00090E00E948C0771CF8A81813311F0E89426
:1009B00034F8B70190E00E948C07111125C085E43E
:1009C00090E094FC02C085E690E0B7010E948C079D
:1009D000B7FC05C0A114B10471F534FE2CC0B1946C
:1009E000A194B1088DE2B70190E00E948C0780E3EA
:1009F0005AE0A516B1040CF5B70190E00E948C07EF
:100A0000B701C501C096CDCFB7018EE290E00E943C
:100A10008C071E5F02E0802F0F5FE1E0F0E0EC0F3B
:100A2000FD1FE80FF11D8081B70190E00E948C0747
:100A30000113F1CFC4CF8BE2D6CF8F5F4AE0A41A67
:100A4000B108D6CF8336B1F0833709F43CC0833583
:100A500009F04FC0F501219031906F01682D70E0D1
:100A600006FD02C06FEF7FEFC1010E9476075C01B7
:100A700000680EC0650162E0C60ED11CD5018C91E4
:100A80008983AA24A394B12CFE0131961F010F770C
:100A900003FD05C0852D90E0A816B90618F1A11434
:100AA000B10409F4F2CEF10107FD859107FF8191B0
:100AB0001F01B70190E00E948C0751105A94F1E099
:100AC000AF1AB108ECCFD5012D903D906D01682D86
:100AD00070E006FD02C06FEF7FEFC1010E94810749
:100AE0005C01D5CFB70180E290E00E948C075A9458
:100AF000D1CF843619F0893609F07EC007FF73C064
:100B0000D5016D917D918D919D916D010F76402E56
:100B100097FF09C090958095709561957F4F8F4F95
:100B20009F4F689447F82AE030E08E010F5F1F4F17
:100B3000A8010E94BC07B82EB01A1B2D042D46FE3A
:100B40000AC00E7FB81438F444FE04C042FC02C050
:100B5000042D0E7E182D04FF90C0FE01EB0DF11D3B
:100B60008081803309F083C0097E03FD0EC000FF41
:100B700093C08B2C151518F4850C811A152D852D15
:100B8000811B511608F480E0180F151508F086C077
:100B9000511A04FF85C0B70180E390E00E948C07E2
:100BA00002FF09C088E590E001FD02C088E790E0FF
:100BB000B7010E948C07B81408F47FC0BA940B2DBB
:100BC00010E00F5F1F4FCE0101965C01080F191F47
:100BD000D8018E918D01B70190E00E948C07A0167C
:100BE000B106B1F752CEF501619171916F01072EF7
:100BF000000C880B990B8ACF102F1F7E2AE030E063
:100C0000853709F011CD17FF2AC0D5014D915D91AF
:100C10006D917D916D014C875D876E877F87BE01E9
:100C20006F5F7F4F5B01AB016C857D858E859F85F6
:100C30000E94BC07B82EBA18412EE89447F87DCF21
:100C4000883709F020CD14FD146020E130E0DBCFBF
:100C50001061F9CF04FD166020E132E0D4CFF50138
:100C6000819191916F01AC0160E070E0D4CF02FD01
:100C700002C01F5F7ACF1E5F78CF802F86788823CF
:100C800009F473CFF6CFB70180E290E00E948C07A1
:100C9000A394A514C0F373CFA12EFBCF512C79CF11
:100CA000802F8678882309F486CF8BE201FF80E2CB
:100CB00007FD8DE2B70190E07CCFB70180E390E0C3
:100CC0000E948C078A9477CF8FEF9FEFDFCC2F9213
:100CD0003F924F925F926F927F928F929F92AF92CC
:100CE000BF92CF92DF92EF92FF920F931F93CF9319
:100CF000DF93CDB7DEB7CA1BDB0B0FB6F894DEBFB0
:100D00000FBECDBF09942A88398848885F846E84D5
:100D10007D848C849B84AA84B984C884DF80EE801F
:100D2000FD800C811B81AA81B981CE0FD11D0FB628
:100D3000F894DEBF0FBECDBFED010895283008F056
:100D400027E03327DA01990F311D87FD9160009666
:100D50006105710539F432602E5F3D9330E32A95C9
:100D6000E1F708959F3F30F080387105610509F083
:100D70003C5F3C5F3D93913008F08068911DDF93AC
:100D8000CF931F930F93FF92EF92192F987F969511
:100D9000E92F96959695E90FFF27E653FF4F992780
:100DA0003327EE24FF24A701E70105900894079458
:100DB00028F4360FE71EF81E491F511D660F771FD6
:100DC000881F991F0694A1F70590079428F4E70E51
:100DD000F81E491F561FC11D770F881F991F661FD8
:100DE0000694A1F70590079428F4F80E491F561FA2
:100DF000C71FD11D880F991F661F771F0694A1F783
:100E00000590079420F4490F561FC71FD81F990F4C
:100E1000661F771F881F0694A9F784911095177095
:100E200041F0D695C79557954795F794E7941A954D
:100E3000C1F7E0E7F0E06894159015913591659160
:100E4000959105907FE27395E118F10A430B560BDB
:100E5000C90BD009C0F7E10CF11E431F561FC91F73
:100E6000D01D7EF4703311F48A95E6CFE8940150DA
:100E700030F0080F0AF40027021708F4202F2395FA
:100E8000022F7A3328F079E37D932A95E9F710C091
:100E90007D932A9589F606949795679537951795CA
:100EA0001794E118F10A430B560BC90BD00998F0BF
:100EB00023957E9173957A3308F070E37C93201329
:100EC000B8F77E9170617D9330F0839571E37D93E7
:100ED00070E32A95E1F71124EF90FF900F911F9195
:100EE000CF91DF91992787FD90950895FC0105909A
:100EF000615070400110D8F7809590958E0F9F1F1C
:100F00000895FC016150704001900110D8F7809560
:100F100090958E0F9F1F08950F931F93CF93DF938C
:100F2000182F092FEB018B8181FD09C01FEF0FEFF7
:100F3000812F902FDF91CF911F910F91089582FF04
:100F400014C02E813F818C819D81281739073CF484
:100F5000E881F981CF0101969983888310838E817E
:100F60009F8101969F838E83E3CFE885F985812F4A
:100F70000995892BA1F3DACFFA01AA27283051F17C
:100F8000203181F1E8946F936E7F6E5F7F4F8F4FBA
:100F90009F4FAF4FB1E03ED0B4E03CD0670F781F19
:100FA000891F9A1FA11D680F791F8A1F911DA11DFE
:100FB0006A0F711D811D911DA11D20D009F4689437
:100FC0003F912AE0269F11243019305D3193DEF6DF
:100FD000CF010895462F4770405D4193B3E00FD095
:100FE000C9F7F6CF462F4F70405D4A3318F0495D80
:100FF00031FD4052419302D0A9F7EACFB4E0A69563
:101000009795879577956795BA95C9F70097610584
:10101000710508959B01AC010A2E069457954795DA
:1010200037952795BA95C9F7620F731F841F951FCF
:10103000A01D0895AEE0B0E0E0E2F8E00C94750683
:101040000D891E8986E08C831A8309838FEF9FE7C1
:101050009E838D83AE01475E5F4F6F89788DCE0191
:1010600001960E94BE022F813885020F131FF801DE
:0E10700010822E96E4E00C949106F894FFCFC7
:10107E00062B002A00052B002A00042B002A004113
:10108E006476616E6365642050656F706C650043B5
:10109E006F756E7465722050726F6A65637400505E
:0E10AE00656F706C6520436E743A20256400F7
:00000001FF
